{
  "transactions": [
    {
      "hash": "0x3b1bd5b10ad2c37b92d9ff9893f06556e3bba94a4988d2647b4322f659cb7a7a",
      "transactionType": "CREATE",
      "contractName": "Router",
      "contractAddress": "0xef40d19494c4e99075cd445a3f24161bee3be3b8",
      "function": null,
      "arguments": [
        "0x6Ae43d3271ff6888e7Fc43Fd7321a503ff738951",
        "0x012bAC54348C0E635dCAc9D5FB99f06F24136C9A"
      ],
      "transaction": {
        "from": "0x4479b26363c0465ee05a45ed13b4faea3e8b009a",
        "gas": "0x296552",
        "value": "0x0",
        "input": "0x60c03461008857601f61257338819003918201601f19168301916001600160401b0383118484101761008c57808492604094855283398101031261008857610052602061004b836100a0565b92016100a0565b9060805260a0526040516124be90816100b5823960805181818161065101526106c1015260a0518181816106e601526107770152f35b5f80fd5b634e487b7160e01b5f52604160045260245ffd5b51906001600160a01b03821682036100885756fe6080806040526004361015610012575f80fd5b5f3560e01c9081630542975c1461076557508063282395ac146106805780637535d2461461063c5763ec38785914610048575f80fd5b346105bf5760203660031901126105bf5760043567ffffffffffffffff81116105bf57806004019060a060031982360301126105bf575f806001600160a01b03610091856107a6565b169260448101356100d26040516323b872dd60e01b6020820152336024820152306044820152826064820152606481526100cc60848261080c565b86610884565b9460848201945f5b6100e487846107ba565b9050811015610630576100f787846107ba565b82101561061c578160051b81013590603e19813603018212156105bf57016040813603126105bf576040519061012c826107f0565b80356001600160a01b03811681036105bf57825260208101359067ffffffffffffffff82116105bf57019036601f830112156105bf57813567ffffffffffffffff8111610608578060051b60405191610188602083018461080c565b8252602080830191850101903682116105bf5760208d9501905b8282106105f85750505060406101e5602084019383855260018060a01b03905116928251958692839263fca606dd60e01b84528560048501526044840190610844565b9060248301520381845afa928315610525575f905f946105d5575b5083151590816105cb575b506103c7575b5050508715610222576001016100da565b509091929394505b5f80604051610238816107f0565b600f8152602081016e2732ba1030b6b7bab73a1037baba1d60891b81526102a7608460405180936020820195632d839cb360e21b8752604060248401525180918160648501528484015e868382840101528c6044830152601f801991011681010301601f19810183528261080c565b51906a636f6e736f6c652e6c6f675afa5060648301358510610382576102dd6102e49260249288604099610338575b50506107a6565b92016107a6565b8451338152602081018490528086018590526001600160a01b0391821692909116907f764f0dc063c06f32d89a3f3af80c0db4be8a090901f589a478b447e0a51f09f190606090a382519182526020820152f35b895163a9059cbb60e01b602080830191909152338783019081529081019290925261037b92909161037690839060400103601f19810184528361080c565b610884565b5f806102d6565b60405162461bcd60e51b815260206004820152601a60248201527f496e73756666696369656e74206f757470757420616d6f756e740000000000006044820152606490fd5b604051636eb1769f60e11b81523060048201526001600160a01b0382166024820152989a979893979293602081604481895afa80156105255785915f9161058f575b509261041b6104969392604095610877565b845163095ea7b360e01b60208083019182526001600160a01b03861660248401526044808401949094529282529091905f9061045860648561080c565b835190828c5af15f513d82610573575b505015610530575b50515f8451809781958294630206d8e160e01b8452606060048501526064840190610844565b90602483015233604483015203925af1908115610525575f925f926104f2575b508181039081116104de576104d5926104cf919a610877565b96610877565b935f8080610211565b634e487b7160e01b5f52601160045260245ffd5b909250610516915060403d811161051e575b61050e818361080c565b81019061082e565b90915f6104b6565b503d610504565b6040513d5f823e3d90fd5b61056d90610567865163095ea7b360e01b60208201528560248201525f60448201526044815261056160648261080c565b8a610884565b88610884565b5f610470565b9091506105875750873b15155b5f80610468565b600114610580565b929150506020823d82116105c3575b816105ab6020938361080c565b810103126105bf579051849061041b610409565b5f80fd5b3d915061059e565b905015155f61020b565b90506105f091935060403d811161051e5761050e818361080c565b92905f610200565b81358152602091820191016101a2565b634e487b7160e01b5f52604160045260245ffd5b634e487b7160e01b5f52603260045260245ffd5b5090919293945061022a565b346105bf575f3660031901126105bf576040517f00000000000000000000000000000000000000000000000000000000000000006001600160a01b03168152602090f35b346105bf575f3660031901126105bf57604051611bac8082019082821067ffffffffffffffff8311176106085760609183916108dd83396001600160a01b037f0000000000000000000000000000000000000000000000000000000000000000811682527f00000000000000000000000000000000000000000000000000000000000000001660208201523360408201520301905ff0801561052557604080513381526001600160a01b039290921660208084018290529290917fdc0ba42e7cae0585e991514f923dd95d04d108cfda023df5b85b8ac8392f1a6c91a1604051908152f35b346105bf575f3660031901126105bf577f00000000000000000000000000000000000000000000000000000000000000006001600160a01b03168152602090f35b356001600160a01b03811681036105bf5790565b903590601e19813603018212156105bf570180359067ffffffffffffffff82116105bf57602001918160051b360383136105bf57565b6040810190811067ffffffffffffffff82111761060857604052565b90601f8019910116810190811067ffffffffffffffff82111761060857604052565b91908260409103126105bf576020825192015190565b90602080835192838152019201905f5b8181106108615750505090565b8251845260209384019390920191600101610854565b919082018092116104de57565b905f602091828151910182855af115610525575f513d6108d357506001600160a01b0381163b155b6108b35750565b635274afe760e01b5f9081526001600160a01b0391909116600452602490fd5b600114156108ac56fe60c03461010c57601f611bac38819003918201601f19168301916001600160401b038311848410176101105780849260609460405283398101031261010c5761004781610124565b9061005460208201610124565b906001600160a01b039061006a90604001610124565b169182156100f9575f80546001600160a01b031981168517825560405194916001600160a01b03909116907f8be0079c531659141344cd1fd0a4f28419497f9722a3daafe3b4186f6b6457e09080a360805260a052611a739081610139823960805181818161069e015281816107d201528181610b2801528181610dfa01526111e2015260a05181610d350152f35b631e4fbdf760e01b5f525f60045260245ffd5b5f80fd5b634e487b7160e01b5f52604160045260245ffd5b51906001600160a01b038216820361010c5756fe60806040526004361015610011575f80fd5b5f5f3560e01c80630206d8e114610d645780630542975c14610d205780631b11d0ff14610ac25780631d83440914610aa4578063514fcac7146109f3578063587b71a6146108bb578063588b95821461075d578063715018a614610703578063718135c3146106cd5780637535d24614610688578063809eecb9146105c25780638da5cb5b1461059b578063b13dc5ac146102fb578063b4aadd7d14610289578063f196721f14610250578063f2fde38b146101ca578063f8b2cb4f1461012e5763fca606dd146100e0575f80fd5b3461012b57604036600319011261012b576004359067ffffffffffffffff821161012b57604061011f6101163660048601611050565b602435916113a9565b82519182526020820152f35b80fd5b503461012b57602036600319011261012b5760249060206001600160a01b03610155611097565b16604051938480926370a0823160e01b82523060048301525afa9081156101be5790610187575b602090604051908152f35b506020813d6020116101b6575b816101a160209383611124565b810103126101b2576020905161017c565b5f80fd5b3d9150610194565b604051903d90823e3d90fd5b503461012b57602036600319011261012b576101e4611097565b6101ec61190d565b6001600160a01b0316801561023c5781546001600160a01b03198116821783556001600160a01b03167f8be0079c531659141344cd1fd0a4f28419497f9722a3daafe3b4186f6b6457e08380a380f35b631e4fbdf760e01b82526004829052602482fd5b503461012b57602036600319011261012b576020906040906001600160a01b03610278611097565b168152600383522054604051908152f35b503461012b57602036600319011261012b57604060c091600435815260026020522060018060a01b038154169060018060a01b036001820154169060028101546003820154906005600484015493015493604051958652602086015260408501526060840152608083015260a0820152f35b503461012b5760a036600319011261012b57610315611097565b90602435610321611081565b9260843560643561033061190d565b83151580610592575b1561054d576001600160a01b0361034f846111b7565b1693604051936370a0823160e01b8552306004860152602085602481895afa94851561054257879561050e575b506001600160a01b0316808752600360205260408720549094906103a09083611155565b116104c957600154965f1988146104b55760406001602099019788978860015582516103cb816110f4565b8881526001600160a01b039485168c820181815285830188815260608401898152608085018b815260a086018d81528f8952600260208190528a8a2097518854908d166001600160a01b0319918216178955955160018901805491909d16961695909517909a559151928501929092559051600380850191909155905160048401559551600590920191909155908252928a5220805461046c908490611155565b9055604051948552878501526040840152606083015260808201527f24f794cfaae4b733ee878feb5157cc43d8e19963db9da2e1aeea9d7d482009dd60a03392a3604051908152f35b634e487b7160e01b87526011600452602487fd5b60405162461bcd60e51b815260206004820152601f60248201527f496e73756666696369656e7420636f6c6c61746572616c2062616c616e6365006044820152606490fd5b9094506020813d60201161053a575b8161052a60209383611124565b810103126101b25751935f61037c565b3d915061051d565b6040513d89823e3d90fd5b60405162461bcd60e51b815260206004820152601b60248201527f496e76616c696420636f6c6c61746572616c206f7220707269636500000000006044820152606490fd5b50801515610339565b503461012b578060031936011261012b57546040516001600160a01b039091168152602090f35b503461012b57606036600319011261012b576105dc611097565b6024356105e7611081565b916105f061190d565b81156106445760405163a9059cbb60e01b60208201526001600160a01b039390931660248401526044808401929092529082526106419190610633606483611124565b6001600160a01b03166119e5565b80f35b606460405162461bcd60e51b815260206004820152602060248201527f416d6f756e74206d7573742062652067726561746572207468616e207a65726f6044820152fd5b503461012b578060031936011261012b576040517f00000000000000000000000000000000000000000000000000000000000000006001600160a01b03168152602090f35b503461012b57602036600319011261012b5760206106f16106ec611097565b6111b7565b6040516001600160a01b039091168152f35b503461012b578060031936011261012b5761071c61190d565b80546001600160a01b03198116825581906001600160a01b03167f8be0079c531659141344cd1fd0a4f28419497f9722a3daafe3b4186f6b6457e08280a380f35b503461012b5760a036600319011261012b57610777611097565b60243590610783611081565b6084359261078f61190d565b846040519333602086015260018060a01b031692836040860152826060860152856080860152608085526107c460a086611124565b6001600160a01b03908116947f000000000000000000000000000000000000000000000000000000000000000090911690813b156108b757829161083a916040519485809481936310ac2ddf60e21b83523060048401528b6024840152606435604484015260a0606484015260a4830190611162565b82608483015203925af180156108ac57610893575b506020945c93604051918252848683015260408201527f4e8a1f238544f3799648c10e307893fb6a07a58a52f30f70fe3e479dd37816f760603392a4604051908152f35b61089e868092611124565b6108a8575f61084f565b8480fd5b6040513d88823e3d90fd5b8280fd5b503461012b57604036600319011261012b576004356024356108db61190d565b8183526002602052604083206040516108f3816110f4565b81546001600160a01b0390811682526001830154166020820152600282015460408201526003820154606082015260048201546080820181905260059092015460a090910152156109b75780156109825760207f8e73a807b83fde44e6e12224a9b4fade736ffe96ab8d511abd64e9a1b4e8c0ca9183855260028252806004604087200155604051908152a280f35b60405162461bcd60e51b815260206004820152600d60248201526c496e76616c696420707269636560981b6044820152606490fd5b60405162461bcd60e51b815260206004820152601460248201527313dc99195c88191bd95cc81b9bdd08195e1a5cdd60621b6044820152606490fd5b503461012b57602036600319011261012b57600435610a1061190d565b80825260026020819052604083209081015490546001600160a01b0390610a389082166111b7565b1683526003602052610a4f604084209182546110d3565b905580825260026020528160056040822082815582600182015582600282015582600382015582600482015501557f61b9399f2f0f32ca39ce8d7be32caed5ec22fe07a6daba3a467ed479ec6065828280a280f35b503461012b578060031936011261012b576020600154604051908152f35b346101b25760a03660031901126101b257610adb611097565b602435610ae66110ad565b506084359067ffffffffffffffff82116101b257366023830112156101b257816004013567ffffffffffffffff81116101b2578201923660248501116101b2577f00000000000000000000000000000000000000000000000000000000000000009160018060a01b03831694853303610cea57608090859003126101b25760248401356001600160a01b03811691908290036101b25760448501356001600160a01b03811695908690036101b2576084810135956001600160a01b0385169487906020908590610bb7828b8b6117cc565b60405163573ade8160e01b81526001600160a01b039182166004820152602481019290925260448201939093529186166064830152816084815f8d5af18015610ca757610cb2575b50610c3493610c2b9290916064906001600160a01b0390610c1f906111b7565b16910135913091611783565b60443590611155565b92835f5d843b156101b2575f9460a48692604051978893849263a415bcad60e01b845287600485015289602485015260448401528160648401523060848401525af1938415610ca757610c8c94610c97575b506117cc565b602060405160018152f35b5f610ca191611124565b5f610c86565b6040513d5f823e3d90fd5b9390916020853d602011610ce2575b81610cce60209383611124565b810103126101b25790935090610c2b610bff565b3d9150610cc1565b60405162461bcd60e51b815260206004820152600e60248201526d24b73b30b634b21031b0b63632b960911b6044820152606490fd5b346101b2575f3660031901126101b2576040517f00000000000000000000000000000000000000000000000000000000000000006001600160a01b03168152602090f35b346101b25760603660031901126101b25760043567ffffffffffffffff81116101b257610d95903690600401611050565b610d9d611081565b91610dab60243583836113a9565b919092835f5b828110610f8c575b505015610f7857355f8181526002602052604090206001810154905491946001600160a01b03928316929091610e779116610df685303384611783565b60207f000000000000000000000000000000000000000000000000000000000000000091610e258784836117cc565b5f9889526002825260409889902060050154985163573ade8160e01b81526001600160a01b0391821660048201526024810188905260448101999099523060648a015282169792839081906084820190565b03815f8b5af1918215610ca7578692610f40575b506020936064929091610ec891906001600160a01b03610eaa856111b7565b16805f526003885260405f20610ec18482546110d3565b90556117cc565b5f6040519788948593631a4ca37b60e21b8552600485015288602485015260018060a01b031660448401525af1928315610ca757604093610f11575b5082519182526020820152f35b610f329060203d602011610f39575b610f2a8183611124565b810190611146565b5083610f04565b503d610f20565b9150926020823d602011610f70575b81610f5c60209383611124565b810103126101b25792859150610ec8610e8b565b3d9150610f4f565b634e487b7160e01b5f52603260045260245ffd5b610f978184866110c3565b355f526002602052600360405f200190828254808210155f146110055750505f82610fc66001945480966110d3565b947f7197c152be5468f5e08244b02d5351b8c62d88f99d9a6a3153870c5c95f697926020610ff5868a8c6110c3565b3592604051908152a25501610db1565b917f7197c152be5468f5e08244b02d5351b8c62d88f99d9a6a3153870c5c95f6979293611037611040936020956110d3565b905585876110c3565b3592604051908152a28580610db9565b9181601f840112156101b25782359167ffffffffffffffff83116101b2576020808501948460051b0101116101b257565b604435906001600160a01b03821682036101b257565b600435906001600160a01b03821682036101b257565b606435906001600160a01b03821682036101b257565b9190811015610f785760051b0190565b919082039182116110e057565b634e487b7160e01b5f52601160045260245ffd5b60c0810190811067ffffffffffffffff82111761111057604052565b634e487b7160e01b5f52604160045260245ffd5b90601f8019910116810190811067ffffffffffffffff82111761111057604052565b908160209103126101b2575190565b919082018092116110e057565b805180835260209291819084018484015e5f828201840152601f01601f1916010190565b51906fffffffffffffffffffffffffffffffff821682036101b257565b51906001600160a01b03821682036101b257565b6040516335ea6a7560e01b81526001600160a01b039182166004820152906101e090829060249082907f0000000000000000000000000000000000000000000000000000000000000000165afa908115610ca7575f91611224575b5061010001516001600160a01b031690565b8091506101e03d81116113a2575b61123c8183611124565b810103906101e082126101b257604051916101e083019083821067ffffffffffffffff83111761111057602091604052126101b2576040516020810181811067ffffffffffffffff821117611110576040528151815282526112a060208201611186565b60208301526112b160408201611186565b60408301526112c260608201611186565b60608301526112d360808201611186565b60808301526112e460a08201611186565b60a083015260c081015164ffffffffff811681036101b25760c083015260e081015161ffff811681036101b257611396916101c09160e085015261132b61010082016111a3565b61010085015261133e61012082016111a3565b61012085015261135161014082016111a3565b61014085015261136461016082016111a3565b6101608501526113776101808201611186565b61018085015261138a6101a08201611186565b6101a085015201611186565b6101c08201525f611212565b503d611232565b919290925f935f935f5b828110611422575b505050506113f3836040516113d1604082611124565b601081526f18dbdb1b185d195c985b13dd5d1c1d5d60821b6020820152611933565b61142082604051611405604082611124565b60098152681919589d125b9c1d5d60ba1b6020820152611933565b565b6114338184849995969798996110c3565b355f52600260205260405f20936040519261144d846110f4565b85546001600160a01b039081168552600187015416602085019081526002870154604086015260038701546060860190815260048801546080870190815260059098015460a08701529096906114cf6114a78686866110c3565b356040516114b6604082611124565b60078152661bdc99195c925960ca1b6020820152611933565b611500896040516114e1604082611124565b600d81526c1d1c98591a5b99d05b5bdd5b9d609a1b6020820152611933565b85518851835160405163313ce56760e01b81526001600160a01b03928316939192909160209183916004918391165afa8015610ca75761154c6020916004935f9161176c575b506119a3565b936040519283809263313ce56760e01b82525afa8015610ca757611576915f9161173e57506119a3565b91670de0b6b3a76400008c02928c8404670de0b6b3a7640000148d1517156110e0576115a86115ae926115b4956119b4565b926119b4565b906119c7565b976115df896040516115c7604082611124565b60068152651bdd5d1c1d5d60d21b6020820152611933565b815189811061160e57505050505050505061160492916115fe91611155565b93611155565b905f8080806113bb565b60049294979c99506116289060209294979c9b9699611155565b9b5193519251955160405163313ce56760e01b81526001600160a01b039788169791959093849290918391165afa8015610ca7576116716020916004935f9161176c57506119a3565b956040519283809263313ce56760e01b82525afa8015610ca75761169b915f9161173e57506119a3565b91670de0b6b3a7640000850294808604670de0b6b3a764000014901517156110e0576116d9926116cf6116d49287946119b4565b6119b4565b611155565b5f198101919082116110e0576117316116f7600194611737946119c7565b809261172c8260405161170b604082611124565b600f81526e1c995c5d5a5c99591119589d105b5d608a1b6020820152611933565b6110d3565b95611155565b95016113b3565b61175f915060203d8111611765575b6117578183611124565b81019061198a565b5f611546565b503d61174d565b61175f9150833d8111611765576117578183611124565b6040516323b872dd60e01b60208201526001600160a01b039283166024820152929091166044830152606480830193909352918152611420916117c7608483611124565b6119e5565b604051636eb1769f60e11b81523060048201526001600160a01b03838116602483018190529490831691602081604481865afa908115610ca7575f916118d9575b50611855946118636118226020945f94611155565b60405163095ea7b360e01b8682019081526001600160a01b03909416602482015260448101919091529687906064820190565b03601f198101885287611124565b85519082865af1903d5f5190836118ba575b5050501561188257505050565b6117c7611420936040519063095ea7b360e01b602083015260248201525f6044820152604481526118b4606482611124565b826119e5565b919250906118cf57503b15155b5f8080611875565b60019150146118c7565b90506020813d602011611905575b816118f460209383611124565b810103126101b2575161185561180d565b3d91506118e7565b5f546001600160a01b0316330361192057565b63118cdaa760e01b5f523360045260245ffd5b5f9190829161197760405180926119636020830195632d839cb360e21b8752604060248501526064840190611162565b90604483015203601f198101835282611124565b51906a636f6e736f6c652e6c6f675afa50565b908160209103126101b2575160ff811681036101b25790565b60ff16604d81116110e057600a0a90565b818102929181159184041417156110e057565b81156119d1570490565b634e487b7160e01b5f52601260045260245ffd5b905f602091828151910182855af115610ca7575f513d611a3457506001600160a01b0381163b155b611a145750565b635274afe760e01b5f9081526001600160a01b0391909116600452602490fd5b60011415611a0d56fea2646970667358221220d6a806011c3a02a34515a03fa80aebef9a4abc5dc9426fa2c2613aa9b64b881a64736f6c634300081d0033a2646970667358221220d7b6ef2e38185cb81d6efe37f0900704075fdf9f71a457a7236a2079b1b1e75964736f6c634300081d00330000000000000000000000006ae43d3271ff6888e7fc43fd7321a503ff738951000000000000000000000000012bac54348c0e635dcac9d5fb99f06f24136c9a",
        "nonce": "0xc",
        "chainId": "0xaa36a7"
      },
      "additionalContracts": [],
      "isFixedGasLimit": false
    },
    {
      "hash": "0x98c001ea0d83a6d62bf84dc4989e1dd9d06d608c69a0bf45a4db18b1af1f003e",
      "transactionType": "CALL",
      "contractName": "Router",
      "contractAddress": "0xef40d19494c4e99075cd445a3f24161bee3be3b8",
      "function": "deployPIV()",
      "arguments": [],
      "transaction": {
        "from": "0x4479b26363c0465ee05a45ed13b4faea3e8b009a",
        "to": "0xef40d19494c4e99075cd445a3f24161bee3be3b8",
        "gas": "0x200e83",
        "value": "0x0",
        "input": "0x282395ac",
        "nonce": "0xd",
        "chainId": "0xaa36a7"
      },
      "additionalContracts": [
        {
          "transactionType": "CREATE",
          "address": "0xffbe243d455fc7ff78ee99106d3d9ac2d4e51519",
          "initCode": "0x60c03461010c57601f611bac38819003918201601f19168301916001600160401b038311848410176101105780849260609460405283398101031261010c5761004781610124565b9061005460208201610124565b906001600160a01b039061006a90604001610124565b169182156100f9575f80546001600160a01b031981168517825560405194916001600160a01b03909116907f8be0079c531659141344cd1fd0a4f28419497f9722a3daafe3b4186f6b6457e09080a360805260a052611a739081610139823960805181818161069e015281816107d201528181610b2801528181610dfa01526111e2015260a05181610d350152f35b631e4fbdf760e01b5f525f60045260245ffd5b5f80fd5b634e487b7160e01b5f52604160045260245ffd5b51906001600160a01b038216820361010c5756fe60806040526004361015610011575f80fd5b5f5f3560e01c80630206d8e114610d645780630542975c14610d205780631b11d0ff14610ac25780631d83440914610aa4578063514fcac7146109f3578063587b71a6146108bb578063588b95821461075d578063715018a614610703578063718135c3146106cd5780637535d24614610688578063809eecb9146105c25780638da5cb5b1461059b578063b13dc5ac146102fb578063b4aadd7d14610289578063f196721f14610250578063f2fde38b146101ca578063f8b2cb4f1461012e5763fca606dd146100e0575f80fd5b3461012b57604036600319011261012b576004359067ffffffffffffffff821161012b57604061011f6101163660048601611050565b602435916113a9565b82519182526020820152f35b80fd5b503461012b57602036600319011261012b5760249060206001600160a01b03610155611097565b16604051938480926370a0823160e01b82523060048301525afa9081156101be5790610187575b602090604051908152f35b506020813d6020116101b6575b816101a160209383611124565b810103126101b2576020905161017c565b5f80fd5b3d9150610194565b604051903d90823e3d90fd5b503461012b57602036600319011261012b576101e4611097565b6101ec61190d565b6001600160a01b0316801561023c5781546001600160a01b03198116821783556001600160a01b03167f8be0079c531659141344cd1fd0a4f28419497f9722a3daafe3b4186f6b6457e08380a380f35b631e4fbdf760e01b82526004829052602482fd5b503461012b57602036600319011261012b576020906040906001600160a01b03610278611097565b168152600383522054604051908152f35b503461012b57602036600319011261012b57604060c091600435815260026020522060018060a01b038154169060018060a01b036001820154169060028101546003820154906005600484015493015493604051958652602086015260408501526060840152608083015260a0820152f35b503461012b5760a036600319011261012b57610315611097565b90602435610321611081565b9260843560643561033061190d565b83151580610592575b1561054d576001600160a01b0361034f846111b7565b1693604051936370a0823160e01b8552306004860152602085602481895afa94851561054257879561050e575b506001600160a01b0316808752600360205260408720549094906103a09083611155565b116104c957600154965f1988146104b55760406001602099019788978860015582516103cb816110f4565b8881526001600160a01b039485168c820181815285830188815260608401898152608085018b815260a086018d81528f8952600260208190528a8a2097518854908d166001600160a01b0319918216178955955160018901805491909d16961695909517909a559151928501929092559051600380850191909155905160048401559551600590920191909155908252928a5220805461046c908490611155565b9055604051948552878501526040840152606083015260808201527f24f794cfaae4b733ee878feb5157cc43d8e19963db9da2e1aeea9d7d482009dd60a03392a3604051908152f35b634e487b7160e01b87526011600452602487fd5b60405162461bcd60e51b815260206004820152601f60248201527f496e73756666696369656e7420636f6c6c61746572616c2062616c616e6365006044820152606490fd5b9094506020813d60201161053a575b8161052a60209383611124565b810103126101b25751935f61037c565b3d915061051d565b6040513d89823e3d90fd5b60405162461bcd60e51b815260206004820152601b60248201527f496e76616c696420636f6c6c61746572616c206f7220707269636500000000006044820152606490fd5b50801515610339565b503461012b578060031936011261012b57546040516001600160a01b039091168152602090f35b503461012b57606036600319011261012b576105dc611097565b6024356105e7611081565b916105f061190d565b81156106445760405163a9059cbb60e01b60208201526001600160a01b039390931660248401526044808401929092529082526106419190610633606483611124565b6001600160a01b03166119e5565b80f35b606460405162461bcd60e51b815260206004820152602060248201527f416d6f756e74206d7573742062652067726561746572207468616e207a65726f6044820152fd5b503461012b578060031936011261012b576040517f00000000000000000000000000000000000000000000000000000000000000006001600160a01b03168152602090f35b503461012b57602036600319011261012b5760206106f16106ec611097565b6111b7565b6040516001600160a01b039091168152f35b503461012b578060031936011261012b5761071c61190d565b80546001600160a01b03198116825581906001600160a01b03167f8be0079c531659141344cd1fd0a4f28419497f9722a3daafe3b4186f6b6457e08280a380f35b503461012b5760a036600319011261012b57610777611097565b60243590610783611081565b6084359261078f61190d565b846040519333602086015260018060a01b031692836040860152826060860152856080860152608085526107c460a086611124565b6001600160a01b03908116947f000000000000000000000000000000000000000000000000000000000000000090911690813b156108b757829161083a916040519485809481936310ac2ddf60e21b83523060048401528b6024840152606435604484015260a0606484015260a4830190611162565b82608483015203925af180156108ac57610893575b506020945c93604051918252848683015260408201527f4e8a1f238544f3799648c10e307893fb6a07a58a52f30f70fe3e479dd37816f760603392a4604051908152f35b61089e868092611124565b6108a8575f61084f565b8480fd5b6040513d88823e3d90fd5b8280fd5b503461012b57604036600319011261012b576004356024356108db61190d565b8183526002602052604083206040516108f3816110f4565b81546001600160a01b0390811682526001830154166020820152600282015460408201526003820154606082015260048201546080820181905260059092015460a090910152156109b75780156109825760207f8e73a807b83fde44e6e12224a9b4fade736ffe96ab8d511abd64e9a1b4e8c0ca9183855260028252806004604087200155604051908152a280f35b60405162461bcd60e51b815260206004820152600d60248201526c496e76616c696420707269636560981b6044820152606490fd5b60405162461bcd60e51b815260206004820152601460248201527313dc99195c88191bd95cc81b9bdd08195e1a5cdd60621b6044820152606490fd5b503461012b57602036600319011261012b57600435610a1061190d565b80825260026020819052604083209081015490546001600160a01b0390610a389082166111b7565b1683526003602052610a4f604084209182546110d3565b905580825260026020528160056040822082815582600182015582600282015582600382015582600482015501557f61b9399f2f0f32ca39ce8d7be32caed5ec22fe07a6daba3a467ed479ec6065828280a280f35b503461012b578060031936011261012b576020600154604051908152f35b346101b25760a03660031901126101b257610adb611097565b602435610ae66110ad565b506084359067ffffffffffffffff82116101b257366023830112156101b257816004013567ffffffffffffffff81116101b2578201923660248501116101b2577f00000000000000000000000000000000000000000000000000000000000000009160018060a01b03831694853303610cea57608090859003126101b25760248401356001600160a01b03811691908290036101b25760448501356001600160a01b03811695908690036101b2576084810135956001600160a01b0385169487906020908590610bb7828b8b6117cc565b60405163573ade8160e01b81526001600160a01b039182166004820152602481019290925260448201939093529186166064830152816084815f8d5af18015610ca757610cb2575b50610c3493610c2b9290916064906001600160a01b0390610c1f906111b7565b16910135913091611783565b60443590611155565b92835f5d843b156101b2575f9460a48692604051978893849263a415bcad60e01b845287600485015289602485015260448401528160648401523060848401525af1938415610ca757610c8c94610c97575b506117cc565b602060405160018152f35b5f610ca191611124565b5f610c86565b6040513d5f823e3d90fd5b9390916020853d602011610ce2575b81610cce60209383611124565b810103126101b25790935090610c2b610bff565b3d9150610cc1565b60405162461bcd60e51b815260206004820152600e60248201526d24b73b30b634b21031b0b63632b960911b6044820152606490fd5b346101b2575f3660031901126101b2576040517f00000000000000000000000000000000000000000000000000000000000000006001600160a01b03168152602090f35b346101b25760603660031901126101b25760043567ffffffffffffffff81116101b257610d95903690600401611050565b610d9d611081565b91610dab60243583836113a9565b919092835f5b828110610f8c575b505015610f7857355f8181526002602052604090206001810154905491946001600160a01b03928316929091610e779116610df685303384611783565b60207f000000000000000000000000000000000000000000000000000000000000000091610e258784836117cc565b5f9889526002825260409889902060050154985163573ade8160e01b81526001600160a01b0391821660048201526024810188905260448101999099523060648a015282169792839081906084820190565b03815f8b5af1918215610ca7578692610f40575b506020936064929091610ec891906001600160a01b03610eaa856111b7565b16805f526003885260405f20610ec18482546110d3565b90556117cc565b5f6040519788948593631a4ca37b60e21b8552600485015288602485015260018060a01b031660448401525af1928315610ca757604093610f11575b5082519182526020820152f35b610f329060203d602011610f39575b610f2a8183611124565b810190611146565b5083610f04565b503d610f20565b9150926020823d602011610f70575b81610f5c60209383611124565b810103126101b25792859150610ec8610e8b565b3d9150610f4f565b634e487b7160e01b5f52603260045260245ffd5b610f978184866110c3565b355f526002602052600360405f200190828254808210155f146110055750505f82610fc66001945480966110d3565b947f7197c152be5468f5e08244b02d5351b8c62d88f99d9a6a3153870c5c95f697926020610ff5868a8c6110c3565b3592604051908152a25501610db1565b917f7197c152be5468f5e08244b02d5351b8c62d88f99d9a6a3153870c5c95f6979293611037611040936020956110d3565b905585876110c3565b3592604051908152a28580610db9565b9181601f840112156101b25782359167ffffffffffffffff83116101b2576020808501948460051b0101116101b257565b604435906001600160a01b03821682036101b257565b600435906001600160a01b03821682036101b257565b606435906001600160a01b03821682036101b257565b9190811015610f785760051b0190565b919082039182116110e057565b634e487b7160e01b5f52601160045260245ffd5b60c0810190811067ffffffffffffffff82111761111057604052565b634e487b7160e01b5f52604160045260245ffd5b90601f8019910116810190811067ffffffffffffffff82111761111057604052565b908160209103126101b2575190565b919082018092116110e057565b805180835260209291819084018484015e5f828201840152601f01601f1916010190565b51906fffffffffffffffffffffffffffffffff821682036101b257565b51906001600160a01b03821682036101b257565b6040516335ea6a7560e01b81526001600160a01b039182166004820152906101e090829060249082907f0000000000000000000000000000000000000000000000000000000000000000165afa908115610ca7575f91611224575b5061010001516001600160a01b031690565b8091506101e03d81116113a2575b61123c8183611124565b810103906101e082126101b257604051916101e083019083821067ffffffffffffffff83111761111057602091604052126101b2576040516020810181811067ffffffffffffffff821117611110576040528151815282526112a060208201611186565b60208301526112b160408201611186565b60408301526112c260608201611186565b60608301526112d360808201611186565b60808301526112e460a08201611186565b60a083015260c081015164ffffffffff811681036101b25760c083015260e081015161ffff811681036101b257611396916101c09160e085015261132b61010082016111a3565b61010085015261133e61012082016111a3565b61012085015261135161014082016111a3565b61014085015261136461016082016111a3565b6101608501526113776101808201611186565b61018085015261138a6101a08201611186565b6101a085015201611186565b6101c08201525f611212565b503d611232565b919290925f935f935f5b828110611422575b505050506113f3836040516113d1604082611124565b601081526f18dbdb1b185d195c985b13dd5d1c1d5d60821b6020820152611933565b61142082604051611405604082611124565b60098152681919589d125b9c1d5d60ba1b6020820152611933565b565b6114338184849995969798996110c3565b355f52600260205260405f20936040519261144d846110f4565b85546001600160a01b039081168552600187015416602085019081526002870154604086015260038701546060860190815260048801546080870190815260059098015460a08701529096906114cf6114a78686866110c3565b356040516114b6604082611124565b60078152661bdc99195c925960ca1b6020820152611933565b611500896040516114e1604082611124565b600d81526c1d1c98591a5b99d05b5bdd5b9d609a1b6020820152611933565b85518851835160405163313ce56760e01b81526001600160a01b03928316939192909160209183916004918391165afa8015610ca75761154c6020916004935f9161176c575b506119a3565b936040519283809263313ce56760e01b82525afa8015610ca757611576915f9161173e57506119a3565b91670de0b6b3a76400008c02928c8404670de0b6b3a7640000148d1517156110e0576115a86115ae926115b4956119b4565b926119b4565b906119c7565b976115df896040516115c7604082611124565b60068152651bdd5d1c1d5d60d21b6020820152611933565b815189811061160e57505050505050505061160492916115fe91611155565b93611155565b905f8080806113bb565b60049294979c99506116289060209294979c9b9699611155565b9b5193519251955160405163313ce56760e01b81526001600160a01b039788169791959093849290918391165afa8015610ca7576116716020916004935f9161176c57506119a3565b956040519283809263313ce56760e01b82525afa8015610ca75761169b915f9161173e57506119a3565b91670de0b6b3a7640000850294808604670de0b6b3a764000014901517156110e0576116d9926116cf6116d49287946119b4565b6119b4565b611155565b5f198101919082116110e0576117316116f7600194611737946119c7565b809261172c8260405161170b604082611124565b600f81526e1c995c5d5a5c99591119589d105b5d608a1b6020820152611933565b6110d3565b95611155565b95016113b3565b61175f915060203d8111611765575b6117578183611124565b81019061198a565b5f611546565b503d61174d565b61175f9150833d8111611765576117578183611124565b6040516323b872dd60e01b60208201526001600160a01b039283166024820152929091166044830152606480830193909352918152611420916117c7608483611124565b6119e5565b604051636eb1769f60e11b81523060048201526001600160a01b03838116602483018190529490831691602081604481865afa908115610ca7575f916118d9575b50611855946118636118226020945f94611155565b60405163095ea7b360e01b8682019081526001600160a01b03909416602482015260448101919091529687906064820190565b03601f198101885287611124565b85519082865af1903d5f5190836118ba575b5050501561188257505050565b6117c7611420936040519063095ea7b360e01b602083015260248201525f6044820152604481526118b4606482611124565b826119e5565b919250906118cf57503b15155b5f8080611875565b60019150146118c7565b90506020813d602011611905575b816118f460209383611124565b810103126101b2575161185561180d565b3d91506118e7565b5f546001600160a01b0316330361192057565b63118cdaa760e01b5f523360045260245ffd5b5f9190829161197760405180926119636020830195632d839cb360e21b8752604060248501526064840190611162565b90604483015203601f198101835282611124565b51906a636f6e736f6c652e6c6f675afa50565b908160209103126101b2575160ff811681036101b25790565b60ff16604d81116110e057600a0a90565b818102929181159184041417156110e057565b81156119d1570490565b634e487b7160e01b5f52601260045260245ffd5b905f602091828151910182855af115610ca7575f513d611a3457506001600160a01b0381163b155b611a145750565b635274afe760e01b5f9081526001600160a01b0391909116600452602490fd5b60011415611a0d56fea2646970667358221220d6a806011c3a02a34515a03fa80aebef9a4abc5dc9426fa2c2613aa9b64b881a64736f6c634300081d00330000000000000000000000006ae43d3271ff6888e7fc43fd7321a503ff738951000000000000000000000000012bac54348c0e635dcac9d5fb99f06f24136c9a0000000000000000000000004479b26363c0465ee05a45ed13b4faea3e8b009a"
        }
      ],
      "isFixedGasLimit": false
    },
    {
      "hash": "0xdf58042d0f544995d0a6e8557bcd4f04090950c4e263548d5d654b5b6827b424",
      "transactionType": "CALL",
      "contractName": null,
      "contractAddress": "0x1804bf30507dc2eb3bdebbbdd859991eaef6eeff",
      "function": "approve(address,uint256)",
      "arguments": [
        "0xFFBE243d455fC7FF78ee99106d3d9aC2D4e51519",
        "115792089237316195423570985008687907853269984665640564039457584007913129639935"
      ],
      "transaction": {
        "from": "0x4479b26363c0465ee05a45ed13b4faea3e8b009a",
        "to": "0x1804bf30507dc2eb3bdebbbdd859991eaef6eeff",
        "gas": "0x11609",
        "value": "0x0",
        "input": "0x095ea7b3000000000000000000000000ffbe243d455fc7ff78ee99106d3d9ac2d4e51519ffffffffffffffffffffffffffffffffffffffffffffffffffffffffffffffff",
        "nonce": "0xe",
        "chainId": "0xaa36a7"
      },
      "additionalContracts": [],
      "isFixedGasLimit": false
    },
    {
      "hash": "0x61bc9b8669e2bd572af25645621316442ef7d69bf30f5c80fd1451ebbd673dad",
      "transactionType": "CALL",
      "contractName": "PIV",
      "contractAddress": "0xffbe243d455fc7ff78ee99106d3d9ac2d4e51519",
      "function": "migrateFromAave(address,uint256,address,uint256,uint256)",
      "arguments": [
        "0x29f2D40B0605204364af54EC677bD022dA425d03",
        "10000000",
        "0x94a9D9AC8a22534E3FaCa9F4e7F2E2cf85d5E4C8",
        "10000000",
        "2"
      ],
      "transaction": {
        "from": "0x4479b26363c0465ee05a45ed13b4faea3e8b009a",
        "to": "0xffbe243d455fc7ff78ee99106d3d9ac2d4e51519",
        "gas": "0xab1c2",
        "value": "0x0",
        "input": "0x588b958200000000000000000000000029f2d40b0605204364af54ec677bd022da425d03000000000000000000000000000000000000000000000000000000000098968000000000000000000000000094a9d9ac8a22534e3faca9f4e7f2e2cf85d5e4c800000000000000000000000000000000000000000000000000000000009896800000000000000000000000000000000000000000000000000000000000000002",
        "nonce": "0xf",
        "chainId": "0xaa36a7"
      },
      "additionalContracts": [],
      "isFixedGasLimit": false
    },
    {
      "hash": "0x0d54e6821c734f61cca2603dcb0bf256cc93a2ce1aa4e0ed0d683f6292f3aa54",
      "transactionType": "CALL",
      "contractName": "PIV",
      "contractAddress": "0xffbe243d455fc7ff78ee99106d3d9ac2d4e51519",
      "function": "placeOrder(address,uint256,address,uint256,uint256)",
      "arguments": [
        "0x29f2D40B0605204364af54EC677bD022dA425d03",
        "1000000",
        "0x94a9D9AC8a22534E3FaCa9F4e7F2E2cf85d5E4C8",
        "110000000000000000000000",
        "2"
      ],
      "transaction": {
        "from": "0x4479b26363c0465ee05a45ed13b4faea3e8b009a",
        "to": "0xffbe243d455fc7ff78ee99106d3d9ac2d4e51519",
        "gas": "0x5b208",
        "value": "0x0",
        "input": "0xb13dc5ac00000000000000000000000029f2d40b0605204364af54ec677bd022da425d0300000000000000000000000000000000000000000000000000000000000f424000000000000000000000000094a9d9ac8a22534e3faca9f4e7f2e2cf85d5e4c800000000000000000000000000000000000000000000174b1ca8ab05a8c000000000000000000000000000000000000000000000000000000000000000000002",
        "nonce": "0x10",
        "chainId": "0xaa36a7"
      },
      "additionalContracts": [],
      "isFixedGasLimit": false
    }
  ],
  "receipts": [
    {
      "status": "0x1",
      "cumulativeGasUsed": "0x145d359",
      "logs": [],
      "logsBloom": "0x00000000000000000000000000000000000000000000000000000000000000000000000000000000000000000000000000000000000000000000000000000000000000000000000000000000000000000000000000000000000000000000000000000000000000000000000000000000000000000000000000000000000000000000000000000000000000000000000000000000000000000000000000000000000000000000000000000000000000000000000000000000000000000000000000000000000000000000000000000000000000000000000000000000000000000000000000000000000000000000000000000000000000000000000000000000",
      "type": "0x2",
      "transactionHash": "0x3b1bd5b10ad2c37b92d9ff9893f06556e3bba94a4988d2647b4322f659cb7a7a",
      "transactionIndex": "0xa4",
      "blockHash": "0x1031819e13885769e1c121bb6545015a6150a18e8275fbd4c116a4f746dc20a0",
      "blockNumber": "0x8537d0",
      "gasUsed": "0x1fd7c9",
      "effectiveGasPrice": "0xf8051",
      "from": "0x4479b26363c0465ee05a45ed13b4faea3e8b009a",
      "to": null,
      "contractAddress": "0xef40d19494c4e99075cd445a3f24161bee3be3b8"
    },
    {
      "status": "0x1",
      "cumulativeGasUsed": "0x15bbea4",
      "logs": [
        {
          "address": "0xffbe243d455fc7ff78ee99106d3d9ac2d4e51519",
          "topics": [
            "0x8be0079c531659141344cd1fd0a4f28419497f9722a3daafe3b4186f6b6457e0",
            "0x0000000000000000000000000000000000000000000000000000000000000000",
            "0x0000000000000000000000004479b26363c0465ee05a45ed13b4faea3e8b009a"
          ],
          "data": "0x",
          "blockHash": "0x1031819e13885769e1c121bb6545015a6150a18e8275fbd4c116a4f746dc20a0",
          "blockNumber": "0x8537d0",
          "blockTimestamp": "0x686f24d0",
          "transactionHash": "0x98c001ea0d83a6d62bf84dc4989e1dd9d06d608c69a0bf45a4db18b1af1f003e",
          "transactionIndex": "0xa5",
          "logIndex": "0x111",
          "removed": false
        },
        {
          "address": "0xef40d19494c4e99075cd445a3f24161bee3be3b8",
          "topics": [
            "0xdc0ba42e7cae0585e991514f923dd95d04d108cfda023df5b85b8ac8392f1a6c"
          ],
          "data": "0x0000000000000000000000004479b26363c0465ee05a45ed13b4faea3e8b009a000000000000000000000000ffbe243d455fc7ff78ee99106d3d9ac2d4e51519",
          "blockHash": "0x1031819e13885769e1c121bb6545015a6150a18e8275fbd4c116a4f746dc20a0",
          "blockNumber": "0x8537d0",
          "blockTimestamp": "0x686f24d0",
          "transactionHash": "0x98c001ea0d83a6d62bf84dc4989e1dd9d06d608c69a0bf45a4db18b1af1f003e",
          "transactionIndex": "0xa5",
          "logIndex": "0x112",
          "removed": false
        }
      ],
      "logsBloom": "0x80000000000000000000000000000000000000000000000000800000000000000000000000000000000000000000000000000000000000000000000000000000000000000000000008000000000000000001000000000800000000000000000000000000020000008000000000000800000000000000000400000000000010400000000000000000000000000000000000000000000000000000000000000080000000081000000000400000000000000008000000000000000000000000000000000000000000000000000000000000000000000000000000000000080020000000000000000000000000000000000000000000000000000000000000000000",
      "type": "0x2",
      "transactionHash": "0x98c001ea0d83a6d62bf84dc4989e1dd9d06d608c69a0bf45a4db18b1af1f003e",
      "transactionIndex": "0xa5",
      "blockHash": "0x1031819e13885769e1c121bb6545015a6150a18e8275fbd4c116a4f746dc20a0",
      "blockNumber": "0x8537d0",
      "gasUsed": "0x15eb4b",
      "effectiveGasPrice": "0xf8051",
      "from": "0x4479b26363c0465ee05a45ed13b4faea3e8b009a",
      "to": "0xef40d19494c4e99075cd445a3f24161bee3be3b8",
      "contractAddress": null
    },
    {
      "status": "0x1",
      "cumulativeGasUsed": "0x15c87f0",
      "logs": [
        {
          "address": "0x1804bf30507dc2eb3bdebbbdd859991eaef6eeff",
          "topics": [
            "0x8c5be1e5ebec7d5bd14f71427d1e84f3dd0314c0f7b2291e5b200ac8c7c3b925",
            "0x0000000000000000000000004479b26363c0465ee05a45ed13b4faea3e8b009a",
            "0x000000000000000000000000ffbe243d455fc7ff78ee99106d3d9ac2d4e51519"
          ],
          "data": "0xffffffffffffffffffffffffffffffffffffffffffffffffffffffffffffffff",
          "blockHash": "0x1031819e13885769e1c121bb6545015a6150a18e8275fbd4c116a4f746dc20a0",
          "blockNumber": "0x8537d0",
          "blockTimestamp": "0x686f24d0",
          "transactionHash": "0xdf58042d0f544995d0a6e8557bcd4f04090950c4e263548d5d654b5b6827b424",
          "transactionIndex": "0xa6",
          "logIndex": "0x113",
          "removed": false
        }
      ],
      "logsBloom": "0x00000000000000000000000000000000000000000000000000000000000000000000000000000000000000000000000000000000000000000000000000200000000000000000000008000000000000000000000000000000000000000000000100000000000000000000000000000000000000000000000000000000000010000000000000000000000000000000000000000000000000000000000000000000020000080000000000000000000000000000000000004000000002000000000000000000000000000000000000000000000800000000000000000000000080000010000008000000000000000000000000000000000000000000000000000000",
      "type": "0x2",
      "transactionHash": "0xdf58042d0f544995d0a6e8557bcd4f04090950c4e263548d5d654b5b6827b424",
      "transactionIndex": "0xa6",
      "blockHash": "0x1031819e13885769e1c121bb6545015a6150a18e8275fbd4c116a4f746dc20a0",
      "blockNumber": "0x8537d0",
      "gasUsed": "0xc94c",
      "effectiveGasPrice": "0xf8051",
      "from": "0x4479b26363c0465ee05a45ed13b4faea3e8b009a",
      "to": "0x1804bf30507dc2eb3bdebbbdd859991eaef6eeff",
      "contractAddress": null
    },
    {
      "status": "0x1",
      "cumulativeGasUsed": "0x1644607",
      "logs": [
        {
          "address": "0x94a9d9ac8a22534e3faca9f4e7f2e2cf85d5e4c8",
          "topics": [
            "0xddf252ad1be2c89b69c2b068fc378daa952ba7f163c4a11628f55a4df523b3ef",
            "0x00000000000000000000000016da4541ad1807f4443d92d26044c1147406eb80",
            "0x000000000000000000000000ffbe243d455fc7ff78ee99106d3d9ac2d4e51519"
          ],
          "data": "0x0000000000000000000000000000000000000000000000000000000000989680",
          "blockHash": "0x1031819e13885769e1c121bb6545015a6150a18e8275fbd4c116a4f746dc20a0",
          "blockNumber": "0x8537d0",
          "blockTimestamp": "0x686f24d0",
          "transactionHash": "0x61bc9b8669e2bd572af25645621316442ef7d69bf30f5c80fd1451ebbd673dad",
          "transactionIndex": "0xa7",
          "logIndex": "0x114",
          "removed": false
        },
        {
          "address": "0x94a9d9ac8a22534e3faca9f4e7f2e2cf85d5e4c8",
          "topics": [
            "0x8c5be1e5ebec7d5bd14f71427d1e84f3dd0314c0f7b2291e5b200ac8c7c3b925",
            "0x000000000000000000000000ffbe243d455fc7ff78ee99106d3d9ac2d4e51519",
            "0x0000000000000000000000006ae43d3271ff6888e7fc43fd7321a503ff738951"
          ],
          "data": "0x0000000000000000000000000000000000000000000000000000000000989680",
          "blockHash": "0x1031819e13885769e1c121bb6545015a6150a18e8275fbd4c116a4f746dc20a0",
          "blockNumber": "0x8537d0",
          "blockTimestamp": "0x686f24d0",
          "transactionHash": "0x61bc9b8669e2bd572af25645621316442ef7d69bf30f5c80fd1451ebbd673dad",
          "transactionIndex": "0xa7",
          "logIndex": "0x115",
          "removed": false
        },
        {
          "address": "0x36b5de936ef1710e1d22eabe5231b28581a92ecc",
          "topics": [
            "0xddf252ad1be2c89b69c2b068fc378daa952ba7f163c4a11628f55a4df523b3ef",
            "0x0000000000000000000000000000000000000000000000000000000000000000",
            "0x0000000000000000000000004479b26363c0465ee05a45ed13b4faea3e8b009a"
          ],
          "data": "0x00000000000000000000000000000000000000000000000000000000000b435b",
          "blockHash": "0x1031819e13885769e1c121bb6545015a6150a18e8275fbd4c116a4f746dc20a0",
          "blockNumber": "0x8537d0",
          "blockTimestamp": "0x686f24d0",
          "transactionHash": "0x61bc9b8669e2bd572af25645621316442ef7d69bf30f5c80fd1451ebbd673dad",
          "transactionIndex": "0xa7",
          "logIndex": "0x116",
          "removed": false
        },
        {
          "address": "0x36b5de936ef1710e1d22eabe5231b28581a92ecc",
          "topics": [
            "0x458f5fa412d0f69b08dd84872b0215675cc67bc1d5b6fd93300a1c3878b86196",
            "0x0000000000000000000000004479b26363c0465ee05a45ed13b4faea3e8b009a",
            "0x0000000000000000000000004479b26363c0465ee05a45ed13b4faea3e8b009a"
          ],
          "data": "0x00000000000000000000000000000000000000000000000000000000000b435b0000000000000000000000000000000000000000000000000000000000a3d9db000000000000000000000000000000000000000005379b2a596d53a9827e32e4",
          "blockHash": "0x1031819e13885769e1c121bb6545015a6150a18e8275fbd4c116a4f746dc20a0",
          "blockNumber": "0x8537d0",
          "blockTimestamp": "0x686f24d0",
          "transactionHash": "0x61bc9b8669e2bd572af25645621316442ef7d69bf30f5c80fd1451ebbd673dad",
          "transactionIndex": "0xa7",
          "logIndex": "0x117",
          "removed": false
        },
        {
          "address": "0x6ae43d3271ff6888e7fc43fd7321a503ff738951",
          "topics": [
            "0x804c9b842b2748a22bb64b345453a3de7ca54a6ca45ce00d415894979e22897a",
            "0x00000000000000000000000094a9d9ac8a22534e3faca9f4e7f2e2cf85d5e4c8"
          ],
          "data": "0x000000000000000000000000000000000000000001dc5a76dc862becc86779360000000000000000000000000000000000000000021dcc49f9602a0302cd5d200000000000000000000000000000000000000000021163ea5842281693cd5d20000000000000000000000000000000000000000004cd433d35b33532dfcf983a000000000000000000000000000000000000000005379b2a596d53a9827e32e4",
          "blockHash": "0x1031819e13885769e1c121bb6545015a6150a18e8275fbd4c116a4f746dc20a0",
          "blockNumber": "0x8537d0",
          "blockTimestamp": "0x686f24d0",
          "transactionHash": "0x61bc9b8669e2bd572af25645621316442ef7d69bf30f5c80fd1451ebbd673dad",
          "transactionIndex": "0xa7",
          "logIndex": "0x118",
          "removed": false
        },
        {
          "address": "0x94a9d9ac8a22534e3faca9f4e7f2e2cf85d5e4c8",
          "topics": [
            "0xddf252ad1be2c89b69c2b068fc378daa952ba7f163c4a11628f55a4df523b3ef",
            "0x000000000000000000000000ffbe243d455fc7ff78ee99106d3d9ac2d4e51519",
            "0x00000000000000000000000016da4541ad1807f4443d92d26044c1147406eb80"
          ],
          "data": "0x0000000000000000000000000000000000000000000000000000000000989680",
          "blockHash": "0x1031819e13885769e1c121bb6545015a6150a18e8275fbd4c116a4f746dc20a0",
          "blockNumber": "0x8537d0",
          "blockTimestamp": "0x686f24d0",
          "transactionHash": "0x61bc9b8669e2bd572af25645621316442ef7d69bf30f5c80fd1451ebbd673dad",
          "transactionIndex": "0xa7",
          "logIndex": "0x119",
          "removed": false
        },
        {
          "address": "0x94a9d9ac8a22534e3faca9f4e7f2e2cf85d5e4c8",
          "topics": [
            "0x8c5be1e5ebec7d5bd14f71427d1e84f3dd0314c0f7b2291e5b200ac8c7c3b925",
            "0x000000000000000000000000ffbe243d455fc7ff78ee99106d3d9ac2d4e51519",
            "0x0000000000000000000000006ae43d3271ff6888e7fc43fd7321a503ff738951"
          ],
          "data": "0x0000000000000000000000000000000000000000000000000000000000000000",
          "blockHash": "0x1031819e13885769e1c121bb6545015a6150a18e8275fbd4c116a4f746dc20a0",
          "blockNumber": "0x8537d0",
          "blockTimestamp": "0x686f24d0",
          "transactionHash": "0x61bc9b8669e2bd572af25645621316442ef7d69bf30f5c80fd1451ebbd673dad",
          "transactionIndex": "0xa7",
          "logIndex": "0x11a",
          "removed": false
        },
        {
          "address": "0x6ae43d3271ff6888e7fc43fd7321a503ff738951",
          "topics": [
            "0xa534c8dbe71f871f9f3530e97a74601fea17b426cae02e1c5aee42c96c784051",
            "0x00000000000000000000000094a9d9ac8a22534e3faca9f4e7f2e2cf85d5e4c8",
            "0x0000000000000000000000004479b26363c0465ee05a45ed13b4faea3e8b009a",
            "0x000000000000000000000000ffbe243d455fc7ff78ee99106d3d9ac2d4e51519"
          ],
          "data": "0x00000000000000000000000000000000000000000000000000000000009896800000000000000000000000000000000000000000000000000000000000000000",
          "blockHash": "0x1031819e13885769e1c121bb6545015a6150a18e8275fbd4c116a4f746dc20a0",
          "blockNumber": "0x8537d0",
          "blockTimestamp": "0x686f24d0",
          "transactionHash": "0x61bc9b8669e2bd572af25645621316442ef7d69bf30f5c80fd1451ebbd673dad",
          "transactionIndex": "0xa7",
          "logIndex": "0x11b",
          "removed": false
        },
        {
          "address": "0x1804bf30507dc2eb3bdebbbdd859991eaef6eeff",
          "topics": [
            "0x8c5be1e5ebec7d5bd14f71427d1e84f3dd0314c0f7b2291e5b200ac8c7c3b925",
            "0x0000000000000000000000004479b26363c0465ee05a45ed13b4faea3e8b009a",
            "0x000000000000000000000000ffbe243d455fc7ff78ee99106d3d9ac2d4e51519"
          ],
          "data": "0xffffffffffffffffffffffffffffffffffffffffffffffffffffffffff67697f",
          "blockHash": "0x1031819e13885769e1c121bb6545015a6150a18e8275fbd4c116a4f746dc20a0",
          "blockNumber": "0x8537d0",
          "blockTimestamp": "0x686f24d0",
          "transactionHash": "0x61bc9b8669e2bd572af25645621316442ef7d69bf30f5c80fd1451ebbd673dad",
          "transactionIndex": "0xa7",
          "logIndex": "0x11c",
          "removed": false
        },
        {
          "address": "0x1804bf30507dc2eb3bdebbbdd859991eaef6eeff",
          "topics": [
            "0xddf252ad1be2c89b69c2b068fc378daa952ba7f163c4a11628f55a4df523b3ef",
            "0x0000000000000000000000000000000000000000000000000000000000000000",
            "0x0000000000000000000000004479b26363c0465ee05a45ed13b4faea3e8b009a"
          ],
          "data": "0x0000000000000000000000000000000000000000000000000000000000000001",
          "blockHash": "0x1031819e13885769e1c121bb6545015a6150a18e8275fbd4c116a4f746dc20a0",
          "blockNumber": "0x8537d0",
          "blockTimestamp": "0x686f24d0",
          "transactionHash": "0x61bc9b8669e2bd572af25645621316442ef7d69bf30f5c80fd1451ebbd673dad",
          "transactionIndex": "0xa7",
          "logIndex": "0x11d",
          "removed": false
        },
        {
          "address": "0x1804bf30507dc2eb3bdebbbdd859991eaef6eeff",
          "topics": [
            "0x458f5fa412d0f69b08dd84872b0215675cc67bc1d5b6fd93300a1c3878b86196",
            "0x000000000000000000000000ffbe243d455fc7ff78ee99106d3d9ac2d4e51519",
            "0x0000000000000000000000004479b26363c0465ee05a45ed13b4faea3e8b009a"
          ],
          "data": "0x000000000000000000000000000000000000000000000000000000000000000100000000000000000000000000000000000000000000000000000000000000010000000000000000000000000000000000000000033b4f6f26c075369a6f2145",
          "blockHash": "0x1031819e13885769e1c121bb6545015a6150a18e8275fbd4c116a4f746dc20a0",
          "blockNumber": "0x8537d0",
          "blockTimestamp": "0x686f24d0",
          "transactionHash": "0x61bc9b8669e2bd572af25645621316442ef7d69bf30f5c80fd1451ebbd673dad",
          "transactionIndex": "0xa7",
          "logIndex": "0x11e",
          "removed": false
        },
        {
          "address": "0x1804bf30507dc2eb3bdebbbdd859991eaef6eeff",
          "topics": [
            "0xddf252ad1be2c89b69c2b068fc378daa952ba7f163c4a11628f55a4df523b3ef",
            "0x0000000000000000000000004479b26363c0465ee05a45ed13b4faea3e8b009a",
            "0x000000000000000000000000ffbe243d455fc7ff78ee99106d3d9ac2d4e51519"
          ],
          "data": "0x0000000000000000000000000000000000000000000000000000000000989680",
          "blockHash": "0x1031819e13885769e1c121bb6545015a6150a18e8275fbd4c116a4f746dc20a0",
          "blockNumber": "0x8537d0",
          "blockTimestamp": "0x686f24d0",
          "transactionHash": "0x61bc9b8669e2bd572af25645621316442ef7d69bf30f5c80fd1451ebbd673dad",
          "transactionIndex": "0xa7",
          "logIndex": "0x11f",
          "removed": false
        },
        {
          "address": "0x6ae43d3271ff6888e7fc43fd7321a503ff738951",
          "topics": [
            "0x00058a56ea94653cdf4f152d227ace22d4c00ad99e2a43f58cb7d9e3feb295f2",
            "0x00000000000000000000000029f2d40b0605204364af54ec677bd022da425d03",
            "0x000000000000000000000000ffbe243d455fc7ff78ee99106d3d9ac2d4e51519"
          ],
          "data": "0x",
          "blockHash": "0x1031819e13885769e1c121bb6545015a6150a18e8275fbd4c116a4f746dc20a0",
          "blockNumber": "0x8537d0",
          "blockTimestamp": "0x686f24d0",
          "transactionHash": "0x61bc9b8669e2bd572af25645621316442ef7d69bf30f5c80fd1451ebbd673dad",
          "transactionIndex": "0xa7",
          "logIndex": "0x120",
          "removed": false
        },
        {
          "address": "0x1804bf30507dc2eb3bdebbbdd859991eaef6eeff",
          "topics": [
            "0x4beccb90f994c31aced7a23b5611020728a23d8ec5cddd1a3e9d97b96fda8666",
            "0x0000000000000000000000004479b26363c0465ee05a45ed13b4faea3e8b009a",
            "0x000000000000000000000000ffbe243d455fc7ff78ee99106d3d9ac2d4e51519"
          ],
          "data": "0x00000000000000000000000000000000000000000000000000000000009890610000000000000000000000000000000000000000033b4f6f26c075369a6f2145",
          "blockHash": "0x1031819e13885769e1c121bb6545015a6150a18e8275fbd4c116a4f746dc20a0",
          "blockNumber": "0x8537d0",
          "blockTimestamp": "0x686f24d0",
          "transactionHash": "0x61bc9b8669e2bd572af25645621316442ef7d69bf30f5c80fd1451ebbd673dad",
          "transactionIndex": "0xa7",
          "logIndex": "0x121",
          "removed": false
        },
        {
          "address": "0x36b5de936ef1710e1d22eabe5231b28581a92ecc",
          "topics": [
            "0xddf252ad1be2c89b69c2b068fc378daa952ba7f163c4a11628f55a4df523b3ef",
            "0x0000000000000000000000000000000000000000000000000000000000000000",
            "0x000000000000000000000000ffbe243d455fc7ff78ee99106d3d9ac2d4e51519"
          ],
          "data": "0x000000000000000000000000000000000000000000000000000000000098aa08",
          "blockHash": "0x1031819e13885769e1c121bb6545015a6150a18e8275fbd4c116a4f746dc20a0",
          "blockNumber": "0x8537d0",
          "blockTimestamp": "0x686f24d0",
          "transactionHash": "0x61bc9b8669e2bd572af25645621316442ef7d69bf30f5c80fd1451ebbd673dad",
          "transactionIndex": "0xa7",
          "logIndex": "0x122",
          "removed": false
        },
        {
          "address": "0x36b5de936ef1710e1d22eabe5231b28581a92ecc",
          "topics": [
            "0x458f5fa412d0f69b08dd84872b0215675cc67bc1d5b6fd93300a1c3878b86196",
            "0x000000000000000000000000ffbe243d455fc7ff78ee99106d3d9ac2d4e51519",
            "0x000000000000000000000000ffbe243d455fc7ff78ee99106d3d9ac2d4e51519"
          ],
          "data": "0x000000000000000000000000000000000000000000000000000000000098aa080000000000000000000000000000000000000000000000000000000000000000000000000000000000000000000000000000000005379b2a596d53a9827e32e4",
          "blockHash": "0x1031819e13885769e1c121bb6545015a6150a18e8275fbd4c116a4f746dc20a0",
          "blockNumber": "0x8537d0",
          "blockTimestamp": "0x686f24d0",
          "transactionHash": "0x61bc9b8669e2bd572af25645621316442ef7d69bf30f5c80fd1451ebbd673dad",
          "transactionIndex": "0xa7",
          "logIndex": "0x123",
          "removed": false
        },
        {
          "address": "0x6ae43d3271ff6888e7fc43fd7321a503ff738951",
          "topics": [
            "0x804c9b842b2748a22bb64b345453a3de7ca54a6ca45ce00d415894979e22897a",
            "0x00000000000000000000000094a9d9ac8a22534e3faca9f4e7f2e2cf85d5e4c8"
          ],
          "data": "0x000000000000000000000000000000000000000001dc5a784fb4703c8792fbc30000000000000000000000000000000000000000021dcc4b6e23440ed6354e040000000000000000000000000000000000000000021163ebcd05422267354e04000000000000000000000000000000000000000004cd433d35b33532dfcf983a000000000000000000000000000000000000000005379b2a596d53a9827e32e4",
          "blockHash": "0x1031819e13885769e1c121bb6545015a6150a18e8275fbd4c116a4f746dc20a0",
          "blockNumber": "0x8537d0",
          "blockTimestamp": "0x686f24d0",
          "transactionHash": "0x61bc9b8669e2bd572af25645621316442ef7d69bf30f5c80fd1451ebbd673dad",
          "transactionIndex": "0xa7",
          "logIndex": "0x124",
          "removed": false
        },
        {
          "address": "0x94a9d9ac8a22534e3faca9f4e7f2e2cf85d5e4c8",
          "topics": [
            "0xddf252ad1be2c89b69c2b068fc378daa952ba7f163c4a11628f55a4df523b3ef",
            "0x00000000000000000000000016da4541ad1807f4443d92d26044c1147406eb80",
            "0x000000000000000000000000ffbe243d455fc7ff78ee99106d3d9ac2d4e51519"
          ],
          "data": "0x000000000000000000000000000000000000000000000000000000000098aa08",
          "blockHash": "0x1031819e13885769e1c121bb6545015a6150a18e8275fbd4c116a4f746dc20a0",
          "blockNumber": "0x8537d0",
          "blockTimestamp": "0x686f24d0",
          "transactionHash": "0x61bc9b8669e2bd572af25645621316442ef7d69bf30f5c80fd1451ebbd673dad",
          "transactionIndex": "0xa7",
          "logIndex": "0x125",
          "removed": false
        },
        {
          "address": "0x6ae43d3271ff6888e7fc43fd7321a503ff738951",
          "topics": [
            "0xb3d084820fb1a9decffb176436bd02558d15fac9b0ddfed8c465bc7359d7dce0",
            "0x00000000000000000000000094a9d9ac8a22534e3faca9f4e7f2e2cf85d5e4c8",
            "0x000000000000000000000000ffbe243d455fc7ff78ee99106d3d9ac2d4e51519",
            "0x0000000000000000000000000000000000000000000000000000000000000000"
          ],
          "data": "0x000000000000000000000000ffbe243d455fc7ff78ee99106d3d9ac2d4e51519000000000000000000000000000000000000000000000000000000000098aa0800000000000000000000000000000000000000000000000000000000000000020000000000000000000000000000000000000000021163ebcd05422267354e04",
          "blockHash": "0x1031819e13885769e1c121bb6545015a6150a18e8275fbd4c116a4f746dc20a0",
          "blockNumber": "0x8537d0",
          "blockTimestamp": "0x686f24d0",
          "transactionHash": "0x61bc9b8669e2bd572af25645621316442ef7d69bf30f5c80fd1451ebbd673dad",
          "transactionIndex": "0xa7",
          "logIndex": "0x126",
          "removed": false
        },
        {
          "address": "0x94a9d9ac8a22534e3faca9f4e7f2e2cf85d5e4c8",
          "topics": [
            "0x8c5be1e5ebec7d5bd14f71427d1e84f3dd0314c0f7b2291e5b200ac8c7c3b925",
            "0x000000000000000000000000ffbe243d455fc7ff78ee99106d3d9ac2d4e51519",
            "0x0000000000000000000000006ae43d3271ff6888e7fc43fd7321a503ff738951"
          ],
          "data": "0x000000000000000000000000000000000000000000000000000000000098aa08",
          "blockHash": "0x1031819e13885769e1c121bb6545015a6150a18e8275fbd4c116a4f746dc20a0",
          "blockNumber": "0x8537d0",
          "blockTimestamp": "0x686f24d0",
          "transactionHash": "0x61bc9b8669e2bd572af25645621316442ef7d69bf30f5c80fd1451ebbd673dad",
          "transactionIndex": "0xa7",
          "logIndex": "0x127",
          "removed": false
        },
        {
          "address": "0x6ae43d3271ff6888e7fc43fd7321a503ff738951",
          "topics": [
            "0x804c9b842b2748a22bb64b345453a3de7ca54a6ca45ce00d415894979e22897a",
            "0x00000000000000000000000094a9d9ac8a22534e3faca9f4e7f2e2cf85d5e4c8"
          ],
          "data": "0x000000000000000000000000000000000000000001dc5a76dc882537578282f50000000000000000000000000000000000000000021dcc49f960441645cefcde0000000000000000000000000000000000000000021163ea58424229d6cefcde000000000000000000000000000000000000000004cd433d35bf03fd6e63ec2d000000000000000000000000000000000000000005379b2a596d53a9827e32e4",
          "blockHash": "0x1031819e13885769e1c121bb6545015a6150a18e8275fbd4c116a4f746dc20a0",
          "blockNumber": "0x8537d0",
          "blockTimestamp": "0x686f24d0",
          "transactionHash": "0x61bc9b8669e2bd572af25645621316442ef7d69bf30f5c80fd1451ebbd673dad",
          "transactionIndex": "0xa7",
          "logIndex": "0x128",
          "removed": false
        },
        {
          "address": "0x94a9d9ac8a22534e3faca9f4e7f2e2cf85d5e4c8",
          "topics": [
            "0xddf252ad1be2c89b69c2b068fc378daa952ba7f163c4a11628f55a4df523b3ef",
            "0x000000000000000000000000ffbe243d455fc7ff78ee99106d3d9ac2d4e51519",
            "0x00000000000000000000000016da4541ad1807f4443d92d26044c1147406eb80"
          ],
          "data": "0x000000000000000000000000000000000000000000000000000000000098aa08",
          "blockHash": "0x1031819e13885769e1c121bb6545015a6150a18e8275fbd4c116a4f746dc20a0",
          "blockNumber": "0x8537d0",
          "blockTimestamp": "0x686f24d0",
          "transactionHash": "0x61bc9b8669e2bd572af25645621316442ef7d69bf30f5c80fd1451ebbd673dad",
          "transactionIndex": "0xa7",
          "logIndex": "0x129",
          "removed": false
        },
        {
          "address": "0x94a9d9ac8a22534e3faca9f4e7f2e2cf85d5e4c8",
          "topics": [
            "0x8c5be1e5ebec7d5bd14f71427d1e84f3dd0314c0f7b2291e5b200ac8c7c3b925",
            "0x000000000000000000000000ffbe243d455fc7ff78ee99106d3d9ac2d4e51519",
            "0x0000000000000000000000006ae43d3271ff6888e7fc43fd7321a503ff738951"
          ],
          "data": "0x0000000000000000000000000000000000000000000000000000000000000000",
          "blockHash": "0x1031819e13885769e1c121bb6545015a6150a18e8275fbd4c116a4f746dc20a0",
          "blockNumber": "0x8537d0",
          "blockTimestamp": "0x686f24d0",
          "transactionHash": "0x61bc9b8669e2bd572af25645621316442ef7d69bf30f5c80fd1451ebbd673dad",
          "transactionIndex": "0xa7",
          "logIndex": "0x12a",
          "removed": false
        },
        {
          "address": "0x6ae43d3271ff6888e7fc43fd7321a503ff738951",
          "topics": [
            "0xefefaba5e921573100900a3ad9cf29f222d995fb3b6045797eaea7521bd8d6f0",
            "0x000000000000000000000000ffbe243d455fc7ff78ee99106d3d9ac2d4e51519",
            "0x00000000000000000000000094a9d9ac8a22534e3faca9f4e7f2e2cf85d5e4c8",
            "0x0000000000000000000000000000000000000000000000000000000000000000"
          ],
          "data": "0x000000000000000000000000ffbe243d455fc7ff78ee99106d3d9ac2d4e51519000000000000000000000000000000000000000000000000000000000098968000000000000000000000000000000000000000000000000000000000000000000000000000000000000000000000000000000000000000000000000000001388",
          "blockHash": "0x1031819e13885769e1c121bb6545015a6150a18e8275fbd4c116a4f746dc20a0",
          "blockNumber": "0x8537d0",
          "blockTimestamp": "0x686f24d0",
          "transactionHash": "0x61bc9b8669e2bd572af25645621316442ef7d69bf30f5c80fd1451ebbd673dad",
          "transactionIndex": "0xa7",
          "logIndex": "0x12b",
          "removed": false
        },
        {
          "address": "0xffbe243d455fc7ff78ee99106d3d9ac2d4e51519",
          "topics": [
            "0x4e8a1f238544f3799648c10e307893fb6a07a58a52f30f70fe3e479dd37816f7",
            "0x0000000000000000000000004479b26363c0465ee05a45ed13b4faea3e8b009a",
            "0x00000000000000000000000029f2d40b0605204364af54ec677bd022da425d03",
            "0x00000000000000000000000094a9d9ac8a22534e3faca9f4e7f2e2cf85d5e4c8"
          ],
          "data": "0x0000000000000000000000000000000000000000000000000000000000989680000000000000000000000000000000000000000000000000000000000098aa080000000000000000000000000000000000000000000000000000000000000002",
          "blockHash": "0x1031819e13885769e1c121bb6545015a6150a18e8275fbd4c116a4f746dc20a0",
          "blockNumber": "0x8537d0",
          "blockTimestamp": "0x686f24d0",
          "transactionHash": "0x61bc9b8669e2bd572af25645621316442ef7d69bf30f5c80fd1451ebbd673dad",
          "transactionIndex": "0xa7",
          "logIndex": "0x12c",
          "removed": false
        }
      ],
      "logsBloom": "0x800000000000080082800000000040000000000000004000020000000000000040000000000000000001000000040000000400004020000000000000002000000000000000000000080000080000000000000000000000000000080400002001000000000200000000000000000008000040040000000000000000101000100020000000810000000000001000000000002000000000000000000000000000800200000801000000000040000000000000082000001040000004021000000100020000020000011000000020000000000008000000000600000000000000a0000010100008000020000400004001000000000000000000000000000000040000",
      "type": "0x2",
      "transactionHash": "0x61bc9b8669e2bd572af25645621316442ef7d69bf30f5c80fd1451ebbd673dad",
      "transactionIndex": "0xa7",
      "blockHash": "0x1031819e13885769e1c121bb6545015a6150a18e8275fbd4c116a4f746dc20a0",
      "blockNumber": "0x8537d0",
      "gasUsed": "0x7be17",
      "effectiveGasPrice": "0xf8051",
      "from": "0x4479b26363c0465ee05a45ed13b4faea3e8b009a",
      "to": "0xffbe243d455fc7ff78ee99106d3d9ac2d4e51519",
      "contractAddress": null
    },
    {
      "status": "0x1",
      "cumulativeGasUsed": "0x1682af9",
      "logs": [
        {
          "address": "0xffbe243d455fc7ff78ee99106d3d9ac2d4e51519",
          "topics": [
            "0x24f794cfaae4b733ee878feb5157cc43d8e19963db9da2e1aeea9d7d482009dd",
            "0x0000000000000000000000004479b26363c0465ee05a45ed13b4faea3e8b009a",
            "0x0000000000000000000000000000000000000000000000000000000000000001"
          ],
          "data": "0x00000000000000000000000029f2d40b0605204364af54ec677bd022da425d0300000000000000000000000094a9d9ac8a22534e3faca9f4e7f2e2cf85d5e4c800000000000000000000000000000000000000000000000000000000000f424000000000000000000000000000000000000000000000174b1ca8ab05a8c000000000000000000000000000000000000000000000000000000000000000000002",
          "blockHash": "0x1031819e13885769e1c121bb6545015a6150a18e8275fbd4c116a4f746dc20a0",
          "blockNumber": "0x8537d0",
          "blockTimestamp": "0x686f24d0",
          "transactionHash": "0x0d54e6821c734f61cca2603dcb0bf256cc93a2ce1aa4e0ed0d683f6292f3aa54",
          "transactionIndex": "0xa8",
          "logIndex": "0x12d",
          "removed": false
        }
      ],
      "logsBloom": "0x80000000000000000000000000000000000000000000000000000000000000000000000200000000000000000000000000000000000000000000000000040000000000000000000008100000000000000000000000040000000000000000000000000000000000000000000000000000000000000000000000000000000010000000000000000004000000000000000000000000000000000000000000000080000000080000000000000000000000000008000000000000000000000000000000000000000000000000000000000000000000000000000000000000000040000000000000000000000000000000000000000000000000000000000000000000",
      "type": "0x2",
      "transactionHash": "0x0d54e6821c734f61cca2603dcb0bf256cc93a2ce1aa4e0ed0d683f6292f3aa54",
      "transactionIndex": "0xa8",
      "blockHash": "0x1031819e13885769e1c121bb6545015a6150a18e8275fbd4c116a4f746dc20a0",
      "blockNumber": "0x8537d0",
      "gasUsed": "0x3e4f2",
      "effectiveGasPrice": "0xf8051",
      "from": "0x4479b26363c0465ee05a45ed13b4faea3e8b009a",
      "to": "0xffbe243d455fc7ff78ee99106d3d9ac2d4e51519",
      "contractAddress": null
    }
  ],
  "libraries": [],
  "pending": [],
  "returns": {},
  "timestamp": 1752114464,
  "chain": 11155111,
  "commit": "74afe1f"
}